:100000000C9434000C9449000C9449000C94490061
:100010000C9449000C9449000C9449000C9449003C
:100020000C9449000C9449000C9449000C9449002C
:100030000C9449000C9449000C9449000C9449001C
:100040000C9449000C9449000C9449000C9449000C
:100050000C9449000C9449000C9449000C944900FC
:100060000C9449000C94490011241FBECFEFD8E036
:10007000DEBFCDBF11E0A0E0B1E0E2E4F1E002C0FC
:1000800005900D92A230B107D9F70E9461000C943F
:100090009F000C940000219A109285001092840019
:1000A00083EC99E09093870080938600E0E8F0E08D
:1000B000808182688083E1E8F0E080818A618083CA
:1000C0000895F8940E944B007894519882E08BB97F
:1000D0008DE790E09093890080938800E8E8F0E055
:1000E0006BEB70E041E02DE730E09091010189B1C8
:1000F00082708917E1F38091000181110EC0718334
:1001000060835FE78AE196E0515080409040E1F7DC
:1001100000C000004093000102C010920001318332
:1001200020835FE78AE196E0515080409040E1F7FC
:1001300000C0000089B1827080930101D6CFF8948D
:02014000FFCFEF
:020142000101B9
:00000001FF
