:100000000C9434000C9446000C9446000C9446006A
:100010000C9446000C9446000C9446000C94460048
:100020000C9446000C9446000C9446000C94460038
:100030000C9446000C949F000C9446000C944600CF
:100040000C9446000C9446000C9446000C94460018
:100050000C9446000C9446000C9446000C94460008
:100060000C9446000C94460011241FBECFEFD8E03C
:10007000DEBFCDBF21E0A0E0B1E001C01D92A23003
:10008000B207E1F70E9470000C94B3000C940000DA
:10009000219A109285001092840083EC99E090934D
:1000A000870080938600E0E8F0E0808182688083AA
:1000B000E1E8F0E080818A6180830895E1E8F0E082
:1000C000808182608083EFE6F0E0808181608083C0
:1000D000B09A8CED9BE09093850080938400089506
:1000E000F8940E9448000E945E007894519882E043
:1000F0008BB98DE790E09093890080938800E8E8C1
:10010000F0E02BEB30E06DE770E0A4E8B0E04CED00
:100110005BE0499BFECF3183208387EA91E601971C
:10012000F1F700C00000809100019091010101975A
:1001300081F77183608311965C934E93EACF1F928F
:100140000F920FB60F9211248F939F9381E090E04E
:1001500090930101809300019F918F910F900FBEAA
:0A0160000F901F901895F894FFCF40
:00000001FF
